{
  "_format": "hh-sol-artifact-1",
  "contractName": "UTXSpender",
  "sourceName": "contracts/UTXSpender.sol",
  "abi": [
    {
      "inputs": [
        {
          "internalType": "address",
          "name": "_jiitTokenAddress",
          "type": "address"
        }
      ],
      "stateMutability": "nonpayable",
      "type": "constructor"
    },
    {
      "anonymous": false,
      "inputs": [
        {
          "indexed": false,
          "internalType": "address",
          "name": "owner",
          "type": "address"
        }
      ],
      "name": "BalanceChecked",
      "type": "event"
    },
    {
      "anonymous": false,
      "inputs": [
        {
          "indexed": false,
          "internalType": "bytes32",
          "name": "utxoId",
          "type": "bytes32"
        }
      ],
      "name": "LogGeneratedUTXO",
      "type": "event"
    },
    {
      "anonymous": false,
      "inputs": [
        {
          "indexed": true,
          "internalType": "bytes32",
          "name": "utxoId",
          "type": "bytes32"
        },
        {
          "indexed": true,
          "internalType": "address",
          "name": "owner",
          "type": "address"
        },
        {
          "indexed": false,
          "internalType": "uint256",
          "name": "amount",
          "type": "uint256"
        }
      ],
      "name": "UTXOBurned",
      "type": "event"
    },
    {
      "anonymous": false,
      "inputs": [
        {
          "indexed": true,
          "internalType": "bytes32",
          "name": "utxoId",
          "type": "bytes32"
        },
        {
          "indexed": true,
          "internalType": "address",
          "name": "owner",
          "type": "address"
        },
        {
          "indexed": false,
          "internalType": "uint256",
          "name": "amount",
          "type": "uint256"
        }
      ],
      "name": "UTXOCreated",
      "type": "event"
    },
    {
      "anonymous": false,
      "inputs": [
        {
          "indexed": true,
          "internalType": "bytes32",
          "name": "utxoId",
          "type": "bytes32"
        },
        {
          "indexed": true,
          "internalType": "address",
          "name": "owner",
          "type": "address"
        },
        {
          "indexed": false,
          "internalType": "uint256",
          "name": "amount",
          "type": "uint256"
        }
      ],
      "name": "UTXORevoked",
      "type": "event"
    },
    {
      "inputs": [
        {
          "components": [
            {
              "internalType": "bytes32",
              "name": "utxoId",
              "type": "bytes32"
            },
            {
              "internalType": "uint256",
              "name": "amount",
              "type": "uint256"
            },
            {
              "internalType": "address",
              "name": "owner",
              "type": "address"
            }
          ],
          "internalType": "struct UTXSpender.UTXTransaction[]",
          "name": "transactions",
          "type": "tuple[]"
        }
      ],
      "name": "burnMultipleUtxos",
      "outputs": [],
      "stateMutability": "nonpayable",
      "type": "function"
    },
    {
      "inputs": [
        {
          "internalType": "bytes32",
          "name": "utxoId",
          "type": "bytes32"
        },
        {
          "internalType": "uint256",
          "name": "paymentAmount",
          "type": "uint256"
        },
        {
          "internalType": "address",
          "name": "userAddress",
          "type": "address"
        }
      ],
      "name": "burnUtxo",
      "outputs": [],
      "stateMutability": "nonpayable",
      "type": "function"
    },
    {
      "inputs": [
        {
          "internalType": "address",
          "name": "user",
          "type": "address"
        }
      ],
      "name": "eventChecker",
      "outputs": [],
      "stateMutability": "nonpayable",
      "type": "function"
    },
    {
      "inputs": [
        {
          "internalType": "address",
          "name": "user",
          "type": "address"
        }
      ],
      "name": "getUserBalance",
      "outputs": [
        {
          "internalType": "uint256",
          "name": "",
          "type": "uint256"
        }
      ],
      "stateMutability": "view",
      "type": "function"
    },
    {
      "inputs": [
        {
          "internalType": "bytes32",
          "name": "utxoId",
          "type": "bytes32"
        },
        {
          "internalType": "uint256",
          "name": "amount",
          "type": "uint256"
        },
        {
          "internalType": "address",
          "name": "owner",
          "type": "address"
        }
      ],
      "name": "getUtxoHash",
      "outputs": [
        {
          "internalType": "bytes32",
          "name": "",
          "type": "bytes32"
        }
      ],
      "stateMutability": "pure",
      "type": "function"
    },
    {
      "inputs": [
        {
          "internalType": "uint256",
          "name": "amount",
          "type": "uint256"
        },
        {
          "internalType": "address",
          "name": "user",
          "type": "address"
        }
      ],
      "name": "issueUtxo",
      "outputs": [
        {
          "internalType": "bytes32",
          "name": "",
          "type": "bytes32"
        }
      ],
      "stateMutability": "nonpayable",
      "type": "function"
    },
    {
      "inputs": [],
      "name": "jiitToken",
      "outputs": [
        {
          "internalType": "contract IERC20",
          "name": "",
          "type": "address"
        }
      ],
      "stateMutability": "view",
      "type": "function"
    },
    {
      "inputs": [],
      "name": "merchantAdress",
      "outputs": [
        {
          "internalType": "address",
          "name": "",
          "type": "address"
        }
      ],
      "stateMutability": "view",
      "type": "function"
    },
    {
      "inputs": [
        {
          "internalType": "bytes32",
          "name": "utxoId",
          "type": "bytes32"
        },
        {
          "internalType": "address",
          "name": "userAddress",
          "type": "address"
        }
      ],
      "name": "revokeUtxo",
      "outputs": [],
      "stateMutability": "nonpayable",
      "type": "function"
    },
    {
      "inputs": [
        {
          "internalType": "address",
          "name": "",
          "type": "address"
        }
      ],
      "name": "userBalances",
      "outputs": [
        {
          "internalType": "uint256",
          "name": "",
          "type": "uint256"
        }
      ],
      "stateMutability": "view",
      "type": "function"
    },
    {
      "inputs": [
        {
          "internalType": "address",
          "name": "",
          "type": "address"
        }
      ],
      "name": "userNonce",
      "outputs": [
        {
          "internalType": "uint256",
          "name": "",
          "type": "uint256"
        }
      ],
      "stateMutability": "view",
      "type": "function"
    },
    {
      "inputs": [
        {
          "internalType": "bytes32",
          "name": "utxoId",
          "type": "bytes32"
        },
        {
          "internalType": "address",
          "name": "user",
          "type": "address"
        },
        {
          "internalType": "uint256",
          "name": "amount",
          "type": "uint256"
        }
      ],
      "name": "utxoIssued",
      "outputs": [],
      "stateMutability": "nonpayable",
      "type": "function"
    },
    {
      "inputs": [
        {
          "internalType": "bytes32",
          "name": "",
          "type": "bytes32"
        }
      ],
      "name": "utxos",
      "outputs": [
        {
          "internalType": "uint256",
          "name": "amount",
          "type": "uint256"
        },
        {
          "internalType": "address",
          "name": "owner",
          "type": "address"
        },
        {
          "internalType": "bool",
          "name": "spent",
          "type": "bool"
        }
      ],
      "stateMutability": "view",
      "type": "function"
    },
    {
      "inputs": [
        {
          "internalType": "bytes32",
          "name": "utxoId",
          "type": "bytes32"
        }
      ],
      "name": "verifyUtxo",
      "outputs": [
        {
          "internalType": "bool",
          "name": "isValid",
          "type": "bool"
        },
        {
          "internalType": "uint256",
          "name": "amount",
          "type": "uint256"
        },
        {
          "internalType": "address",
          "name": "owner",
          "type": "address"
        }
      ],
      "stateMutability": "view",
      "type": "function"
    }
  ],
  "bytecode": "0x60a06040527349a9e170d8a919b16b3d2021c20201e7a9a048296000806101000a81548173ffffffffffffffffffffffffffffffffffffffff021916908373ffffffffffffffffffffffffffffffffffffffff16021790555034801561006457600080fd5b5060405161203438038061203483398181016040528101906100869190610123565b8073ffffffffffffffffffffffffffffffffffffffff1660808173ffffffffffffffffffffffffffffffffffffffff168152505050610150565b600080fd5b600073ffffffffffffffffffffffffffffffffffffffff82169050919050565b60006100f0826100c5565b9050919050565b610100816100e5565b811461010b57600080fd5b50565b60008151905061011d816100f7565b92915050565b600060208284031215610139576101386100c0565b5b60006101478482850161010e565b91505092915050565b608051611ebb610179600039600081816105c901528181610bd30152610e640152611ebb6000f3fe608060405234801561001057600080fd5b50600436106100ea5760003560e01c8063547a2a341161008c578063a3312a8d11610066578063a3312a8d14610287578063a52093e9146102a3578063a6e8a673146102bf578063cef38dd0146102ef576100ea565b8063547a2a341461020757806375a1406a146102395780638847cca314610269576100ea565b806335ec6d44116100c857806335ec6d441461016b5780633cf18ab91461018957806343d8bee4146101bb57806347734892146101d7576100ea565b806326224c64146100ef5780632e04b8e71461011f5780632e3f1c101461014f575b600080fd5b610109600480360381019061010491906113b1565b61030b565b60405161011691906113f7565b60405180910390f35b610139600480360381019061013491906113b1565b610323565b60405161014691906113f7565b60405180910390f35b61016960048036038101906101649190611448565b61033b565b005b6101736105c7565b60405161018091906114e7565b60405180910390f35b6101a3600480360381019061019e9190611502565b6105eb565b6040516101b293929190611559565b60405180910390f35b6101d560048036038101906101d091906115bc565b610642565b005b6101f160048036038101906101ec91906113b1565b610838565b6040516101fe91906113f7565b60405180910390f35b610221600480360381019061021c9190611502565b610881565b6040516102309392919061160f565b60405180910390f35b610253600480360381019061024e9190611646565b610950565b60405161026091906116a8565b60405180910390f35b610271610986565b60405161027e91906116c3565b60405180910390f35b6102a1600480360381019061029c91906113b1565b6109aa565b005b6102bd60048036038101906102b89190611646565b6109e4565b005b6102d960048036038101906102d491906116de565b610d8e565b6040516102e691906116a8565b60405180910390f35b61030960048036038101906103049190611783565b6111b8565b005b60036020528060005260406000206000915090505481565b60026020528060005260406000206000915090505481565b60008054906101000a900473ffffffffffffffffffffffffffffffffffffffff1673ffffffffffffffffffffffffffffffffffffffff163373ffffffffffffffffffffffffffffffffffffffff16146103c9576040517f08c379a00000000000000000000000000000000000000000000000000000000081526004016103c09061182d565b60405180910390fd5b60006001600084815260200190815260200160002090503373ffffffffffffffffffffffffffffffffffffffff1660008054906101000a900473ffffffffffffffffffffffffffffffffffffffff1673ffffffffffffffffffffffffffffffffffffffff161461046e576040517f08c379a00000000000000000000000000000000000000000000000000000000081526004016104659061182d565b60405180910390fd5b8060010160149054906101000a900460ff16156104c0576040517f08c379a00000000000000000000000000000000000000000000000000000000081526004016104b790611899565b60405180910390fd5b8173ffffffffffffffffffffffffffffffffffffffff168160010160009054906101000a900473ffffffffffffffffffffffffffffffffffffffff1673ffffffffffffffffffffffffffffffffffffffff1614610552576040517f08c379a000000000000000000000000000000000000000000000000000000000815260040161054990611905565b60405180910390fd5b60018160010160146101000a81548160ff0219169083151502179055508173ffffffffffffffffffffffffffffffffffffffff16837fc799210fa4149927a0e5216f5f905a8720d0c31b224a02baa5cf78b8374f368783600001546040516105ba91906113f7565b60405180910390a3505050565b7f000000000000000000000000000000000000000000000000000000000000000081565b60016020528060005260406000206000915090508060000154908060010160009054906101000a900473ffffffffffffffffffffffffffffffffffffffff16908060010160149054906101000a900460ff16905083565b60008054906101000a900473ffffffffffffffffffffffffffffffffffffffff1673ffffffffffffffffffffffffffffffffffffffff163373ffffffffffffffffffffffffffffffffffffffff16146106d0576040517f08c379a00000000000000000000000000000000000000000000000000000000081526004016106c79061182d565b60405180910390fd5b6000600160008581526020019081526020016000206000015414610729576040517f08c379a000000000000000000000000000000000000000000000000000000000815260040161072090611971565b60405180910390fd5b60405180606001604052808281526020018373ffffffffffffffffffffffffffffffffffffffff16815260200160001515815250600160008581526020019081526020016000206000820151816000015560208201518160010160006101000a81548173ffffffffffffffffffffffffffffffffffffffff021916908373ffffffffffffffffffffffffffffffffffffffff16021790555060408201518160010160146101000a81548160ff0219169083151502179055509050508173ffffffffffffffffffffffffffffffffffffffff16837fe95beba46e5240e7ff5158850bd82fd602b75e55fa96943f405800bb0076581f8360405161082b91906113f7565b60405180910390a3505050565b6000600360008373ffffffffffffffffffffffffffffffffffffffff1673ffffffffffffffffffffffffffffffffffffffff168152602001908152602001600020549050919050565b60008060008060016000868152602001908152602001600020604051806060016040529081600082015481526020016001820160009054906101000a900473ffffffffffffffffffffffffffffffffffffffff1673ffffffffffffffffffffffffffffffffffffffff1673ffffffffffffffffffffffffffffffffffffffff1681526020016001820160149054906101000a900460ff16151515158152505090508060400151158015610938575060008160000151115b93508060000151925080602001519150509193909250565b600083838360405160200161096793929190611a1b565b6040516020818303038152906040528051906020012090509392505050565b60008054906101000a900473ffffffffffffffffffffffffffffffffffffffff1681565b7fab6aaaa464c01c1549d64e7126601fa5a79b8f2ca85795eae025b67259009b85816040516109d991906116c3565b60405180910390a150565b60008054906101000a900473ffffffffffffffffffffffffffffffffffffffff1673ffffffffffffffffffffffffffffffffffffffff163373ffffffffffffffffffffffffffffffffffffffff1614610a72576040517f08c379a0000000000000000000000000000000000000000000000000000000008152600401610a699061182d565b60405180910390fd5b60006001600085815260200190815260200160002090508060010160149054906101000a900460ff1615610adb576040517f08c379a0000000000000000000000000000000000000000000000000000000008152600401610ad290611899565b60405180910390fd5b8281600001541015610b22576040517f08c379a0000000000000000000000000000000000000000000000000000000008152600401610b1990611aa4565b60405180910390fd5b8173ffffffffffffffffffffffffffffffffffffffff168160010160009054906101000a900473ffffffffffffffffffffffffffffffffffffffff1673ffffffffffffffffffffffffffffffffffffffff1614610bb4576040517f08c379a0000000000000000000000000000000000000000000000000000000008152600401610bab90611905565b60405180910390fd5b60018160010160146101000a81548160ff0219169083151502179055507f000000000000000000000000000000000000000000000000000000000000000073ffffffffffffffffffffffffffffffffffffffff1663a9059cbb60008054906101000a900473ffffffffffffffffffffffffffffffffffffffff16856040518363ffffffff1660e01b8152600401610c4c929190611ac4565b6020604051808303816000875af1158015610c6b573d6000803e3d6000fd5b505050506040513d601f19601f82011682018060405250810190610c8f9190611b19565b610cce576040517f08c379a0000000000000000000000000000000000000000000000000000000008152600401610cc590611b92565b60405180910390fd5b6000838260000154610ce09190611be1565b905083600360008573ffffffffffffffffffffffffffffffffffffffff1673ffffffffffffffffffffffffffffffffffffffff1681526020019081526020016000206000828254610d319190611be1565b925050819055508273ffffffffffffffffffffffffffffffffffffffff16857fad739e40f2cd1cd96d63d53998285fe449b74aa24ea47ece7b0fba4e3fa0ef9786604051610d7f91906113f7565b60405180910390a35050505050565b60008060009054906101000a900473ffffffffffffffffffffffffffffffffffffffff1673ffffffffffffffffffffffffffffffffffffffff163373ffffffffffffffffffffffffffffffffffffffff1614610e1f576040517f08c379a0000000000000000000000000000000000000000000000000000000008152600401610e169061182d565b60405180910390fd5b60008311610e62576040517f08c379a0000000000000000000000000000000000000000000000000000000008152600401610e5990611c61565b60405180910390fd5b7f000000000000000000000000000000000000000000000000000000000000000073ffffffffffffffffffffffffffffffffffffffff166323b872dd8330670de0b6b3a764000087610eb49190611c81565b6040518463ffffffff1660e01b8152600401610ed293929190611cc3565b6020604051808303816000875af1158015610ef1573d6000803e3d6000fd5b505050506040513d601f19601f82011682018060405250810190610f159190611b19565b610f54576040517f08c379a0000000000000000000000000000000000000000000000000000000008152600401610f4b90611d46565b60405180910390fd5b600260008373ffffffffffffffffffffffffffffffffffffffff1673ffffffffffffffffffffffffffffffffffffffff1681526020019081526020016000206000815480929190610fa490611d66565b9190505550600033600260008573ffffffffffffffffffffffffffffffffffffffff1673ffffffffffffffffffffffffffffffffffffffff1681526020019081526020016000205485604051602001610fff93929190611dae565b6040516020818303038152906040528051906020012090507f04c9cf0fed9199f13b9c3a35c2327fdadfa1cb00ff96d7276f9dc90be9989f508160405161104691906116a8565b60405180910390a160405180606001604052808581526020018473ffffffffffffffffffffffffffffffffffffffff16815260200160001515815250600160008381526020019081526020016000206000820151816000015560208201518160010160006101000a81548173ffffffffffffffffffffffffffffffffffffffff021916908373ffffffffffffffffffffffffffffffffffffffff16021790555060408201518160010160146101000a81548160ff02191690831515021790555090505083600360008573ffffffffffffffffffffffffffffffffffffffff1673ffffffffffffffffffffffffffffffffffffffff16815260200190815260200160002060008282546111589190611deb565b925050819055508273ffffffffffffffffffffffffffffffffffffffff16817fe95beba46e5240e7ff5158850bd82fd602b75e55fa96943f405800bb0076581f866040516111a691906113f7565b60405180910390a38091505092915050565b60008054906101000a900473ffffffffffffffffffffffffffffffffffffffff1673ffffffffffffffffffffffffffffffffffffffff163373ffffffffffffffffffffffffffffffffffffffff1614611246576040517f08c379a000000000000000000000000000000000000000000000000000000000815260040161123d9061182d565b60405180910390fd5b60005b8282905081101561134457600083838381811061126957611268611e1f565b5b905060600201600001359050600084848481811061128a57611289611e1f565b5b90506060020160200135905060008585858181106112ab576112aa611e1f565b5b90506060020160400160208101906112c391906113b1565b90503073ffffffffffffffffffffffffffffffffffffffff1663a52093e98484846040518463ffffffff1660e01b815260040161130293929190611e4e565b600060405180830381600087803b15801561131c57600080fd5b505af1158015611330573d6000803e3d6000fd5b505050505050508080600101915050611249565b505050565b600080fd5b600080fd5b600073ffffffffffffffffffffffffffffffffffffffff82169050919050565b600061137e82611353565b9050919050565b61138e81611373565b811461139957600080fd5b50565b6000813590506113ab81611385565b92915050565b6000602082840312156113c7576113c6611349565b5b60006113d58482850161139c565b91505092915050565b6000819050919050565b6113f1816113de565b82525050565b600060208201905061140c60008301846113e8565b92915050565b6000819050919050565b61142581611412565b811461143057600080fd5b50565b6000813590506114428161141c565b92915050565b6000806040838503121561145f5761145e611349565b5b600061146d85828601611433565b925050602061147e8582860161139c565b9150509250929050565b6000819050919050565b60006114ad6114a86114a384611353565b611488565b611353565b9050919050565b60006114bf82611492565b9050919050565b60006114d1826114b4565b9050919050565b6114e1816114c6565b82525050565b60006020820190506114fc60008301846114d8565b92915050565b60006020828403121561151857611517611349565b5b600061152684828501611433565b91505092915050565b61153881611373565b82525050565b60008115159050919050565b6115538161153e565b82525050565b600060608201905061156e60008301866113e8565b61157b602083018561152f565b611588604083018461154a565b949350505050565b611599816113de565b81146115a457600080fd5b50565b6000813590506115b681611590565b92915050565b6000806000606084860312156115d5576115d4611349565b5b60006115e386828701611433565b93505060206115f48682870161139c565b9250506040611605868287016115a7565b9150509250925092565b6000606082019050611624600083018661154a565b61163160208301856113e8565b61163e604083018461152f565b949350505050565b60008060006060848603121561165f5761165e611349565b5b600061166d86828701611433565b935050602061167e868287016115a7565b925050604061168f8682870161139c565b9150509250925092565b6116a281611412565b82525050565b60006020820190506116bd6000830184611699565b92915050565b60006020820190506116d8600083018461152f565b92915050565b600080604083850312156116f5576116f4611349565b5b6000611703858286016115a7565b92505060206117148582860161139c565b9150509250929050565b600080fd5b600080fd5b600080fd5b60008083601f8401126117435761174261171e565b5b8235905067ffffffffffffffff8111156117605761175f611723565b5b60208301915083606082028301111561177c5761177b611728565b5b9250929050565b6000806020838503121561179a57611799611349565b5b600083013567ffffffffffffffff8111156117b8576117b761134e565b5b6117c48582860161172d565b92509250509250929050565b600082825260208201905092915050565b7f4e6f74206d65726368616e740000000000000000000000000000000000000000600082015250565b6000611817600c836117d0565b9150611822826117e1565b602082019050919050565b600060208201905081810360008301526118468161180a565b9050919050565b7f5554584f20616c7265616479207370656e740000000000000000000000000000600082015250565b60006118836012836117d0565b915061188e8261184d565b602082019050919050565b600060208201905081810360008301526118b281611876565b9050919050565b7f4e6f74205554584f206f776e6572000000000000000000000000000000000000600082015250565b60006118ef600e836117d0565b91506118fa826118b9565b602082019050919050565b6000602082019050818103600083015261191e816118e2565b9050919050565b7f5554584f20616c72656164792065786973747300000000000000000000000000600082015250565b600061195b6013836117d0565b915061196682611925565b602082019050919050565b6000602082019050818103600083015261198a8161194e565b9050919050565b6000819050919050565b6119ac6119a782611412565b611991565b82525050565b6000819050919050565b6119cd6119c8826113de565b6119b2565b82525050565b60008160601b9050919050565b60006119eb826119d3565b9050919050565b60006119fd826119e0565b9050919050565b611a15611a1082611373565b6119f2565b82525050565b6000611a27828661199b565b602082019150611a3782856119bc565b602082019150611a478284611a04565b601482019150819050949350505050565b7f496e73756666696369656e742066756e64730000000000000000000000000000600082015250565b6000611a8e6012836117d0565b9150611a9982611a58565b602082019050919050565b60006020820190508181036000830152611abd81611a81565b9050919050565b6000604082019050611ad9600083018561152f565b611ae660208301846113e8565b9392505050565b611af68161153e565b8114611b0157600080fd5b50565b600081519050611b1381611aed565b92915050565b600060208284031215611b2f57611b2e611349565b5b6000611b3d84828501611b04565b91505092915050565b7f4d65726368616e74207472616e73666572206661696c65640000000000000000600082015250565b6000611b7c6018836117d0565b9150611b8782611b46565b602082019050919050565b60006020820190508181036000830152611bab81611b6f565b9050919050565b7f4e487b7100000000000000000000000000000000000000000000000000000000600052601160045260246000fd5b6000611bec826113de565b9150611bf7836113de565b9250828203905081811115611c0f57611c0e611bb2565b5b92915050565b7f416d6f756e74206d757374206265203e20300000000000000000000000000000600082015250565b6000611c4b6012836117d0565b9150611c5682611c15565b602082019050919050565b60006020820190508181036000830152611c7a81611c3e565b9050919050565b6000611c8c826113de565b9150611c97836113de565b9250828202611ca5816113de565b91508282048414831517611cbc57611cbb611bb2565b5b5092915050565b6000606082019050611cd8600083018661152f565b611ce5602083018561152f565b611cf260408301846113e8565b949350505050565b7f4a494954207472616e73666572206661696c6564000000000000000000000000600082015250565b6000611d306014836117d0565b9150611d3b82611cfa565b602082019050919050565b60006020820190508181036000830152611d5f81611d23565b9050919050565b6000611d71826113de565b91507fffffffffffffffffffffffffffffffffffffffffffffffffffffffffffffffff8203611da357611da2611bb2565b5b600182019050919050565b6000611dba8286611a04565b601482019150611dca82856119bc565b602082019150611dda82846119bc565b602082019150819050949350505050565b6000611df6826113de565b9150611e01836113de565b9250828201905080821115611e1957611e18611bb2565b5b92915050565b7f4e487b7100000000000000000000000000000000000000000000000000000000600052603260045260246000fd5b6000606082019050611e636000830186611699565b611e7060208301856113e8565b611e7d604083018461152f565b94935050505056fea26469706673582212201ff710645c936d959bd3a397ebde3c3217e763011b182454901877054ce7b9e864736f6c634300081c0033",
  "linkReferences": {},
  "deployedLinkReferences": {}
}